:100DC4002000312E53636C6F6300322E53616C61CB
:100DD4007200312E636C6F636B00322E616C617232
:100DE4006D00312E53686F775400322E536574743E
:100DF400540043002020200909092020202020201D
:100E040020202020002020202020202020202020FE
:030E14002020009B
:100E6300014600012300012400012A00012600019C
:100E7300450001370001360001280801220A012735
:0E0E830011012016010B0601251D02080000BA
:10024F00E546B40120E52AB4011BE52364016015DE
:10025F00E5236402600FE524700B7BFF7A0D79C4F0
:10026F00FDFF120AFDE546B40221E52AB4011CE5A3
:10027F002364016016E52364026010E524700C7B93
:10028F00FF7A0D79C47D01FF120AFDE546B4021E07
:10029F00E52AB40119E523B4021464016010E524C2
:1002AF00700C7BFF7A0D79C47D01FF120AFDE546C4
:1002BF00B4011DE52AB40118E523B40113640260EB
:1002CF000FE524700B7BFF7A0D79C4FDFF120AFD39
:1002DF00E546B4011DE52AB40118E523B402136401
:1002EF0001600FE524700B7BFF7A0D79C4FDFF12BF
:1002FF000AFDE546B4021EE52AB40119E523B4014F
:10030F001464026010E524700C7BFF7A0D79C47DB4
:10031F0001FF120AFDE54664017028E523640270AF
:10032F0022E52A6401601CE52470187BFF7A0D79A1
:10033F00C6FDFF120AFD7BFF7A0D79CE7D01E4FF2A
:10034F00120AFDE54664027028E52364027022E577
:10035F002A6401601CE52470187BFF7A0D79C6FDB5
:10036F00FF120AFD7BFF7A0D79CE7D01E4FF120AA1
:10037F00FDE54664017028E52364017022E52A64D7
:10038F0001601CE52470187BFF7A0D79D6FDFF12F2
:10039F000AFD7BFF7A0D79DE7D01E4FF120AFDE590
:1003AF004664027028E52364017022E52A64016027
:1003BF001CE52470187BFF7A0D79D6FDFF120AFD1C
:1003CF007BFF7A0D79DE7D01E4FF120AFDE52464DF
:1003DF00016031E5246402602BE52364016025E5AB
:1003EF00236402601FE52A640160197BFF7A0D798F
:1003FF00E6E4FDFF120AFD7BFF7A0D79EE7D01E445
:05040F00FF120AFD22AE
:10001E00E55C64017077855C4D855D4E755C0D15F4
:10002E005DE55C2401FFE433FE7C007D03120C359C
:10003E007D05120C47AC06AD07E55C75F002A47A9F
:10004E0000255EFFEA35F0CF2DCF3CFE7C00EF257C
:10005E005DFFEC3EFEE55D1313543F2FFFEC3EFEBD
:10006E00E55D75F06484FDC3EF9DFBEE9CFAAF5D1C
:10007E007E000C7D90120C47EF2BFFEE3AFE7C00BB
:10008E007D07120C478D47854D5C854E5DE55C64A2
:10009E00027079855C4D855D4E755C0E155DE55C77
:1000AE002401FFE433FE7C007D03120C357D051226
:1000BE000C47AC06AD07E55C75F002A47A00255E30
:1000CE00FFEA35F0CF2DCF3CFE7C00EF255DFFEC37
:1000DE003EFEE55D1313543F2FFFEC3EFEE55D75CE
:1000EE00F06484FDC3EF9DFBEE9CFAAF5D7E000CC9
:1000FE007D90120C47EF2BFFEE3AFE7C007D07122F
:10010E000C478D47854D5C854E5D8066E55C240110
:10011E00FFE433FE7C007D03120C357D05120C4787
:10012E00AC06AD07E55C75F002A47A00255EFFEA29
:10013E0035F0CF2DCF3CFE7C00EF255DFFEC3EFE73
:10014E00E55D1313543F2FFFEC3EFEE55D75F06445
:10015E0084FDC3EF9DFBEE9CFAAF5D7E000C7D909F
:10016E00120C47EF2BFFEE3AFE7C007D07120C4778
:10017E008D47E55A75F00A842430F53BE55A75F043
:10018E000A84E5F02430F53C753D3AE55B75F00ADE
:10019E00842430F53EE55B75F00A84E5F02430F5F5
:1001AE003F75403AE55975F00A842430F541E5591A
:1001BE0075F00A84E5F02430F542E4F543752B32F0
:1001CE00752C30E55D75F00A842430F52DE55D75EE
:1001DE00F00A84E5F02430F52E752F2DE55C75F0D0
:1001EE000A842430F530E55C75F00A84E5F024309D
:1001FE00F53175322DE55E75F00A842430F533E560
:10020E005E75F00A84E5F02430F534E4F535E54703
:10021E002431F551754F5775503AE4F552FB7A007B
:10022E00792BFDFF120AFD7B007A00793B7D01E4FC
:10023E00FF120AFD7B007A00794FE4FD7F0C020A63
:01024E00FDB2
:100A3C00751532751630E52075F00A842430F517DB
:100A4C00E52075F00A84E5F02430F51875192DE5CC
:100A5C000B75F00A842430F51AE50B75F00A84E561
:100A6C00F02430F51B751C2DE52575F00A84243017
:100A7C00F51DE52575F00A84E5F02430F51EE4F546
:100A8C001FE52875F00A842430F50CE52875F00A6A
:100A9C0084E5F02430F50D750E3AE52775F00A84DF
:100AAC002430F50FE52775F00A84E5F02430F510B5
:100ABC0075113AE52275F00A842430F512E5227599
:100ACC00F00A84E5F02430F513E4F5147BFF7A0D7D
:100ADC0079F6FD7F0C120AFD7B007A007915E4FD96
:100AEC00FF120AFD7B007A00790C7D01E4FF020AFB
:010AFC00FDFC
:100F1300E4FF120EE38F5A7F01120EE38F5B7F0211
:100F2300120EE38F597F03120EE38F5D7F04120EBF
:0B0F3300E38F5C7F05120EE38F5E224F
:100D0800E55AFD7C00E4FF120F8C7F057E00120F70
:100D1800EFE55BFD7C007F01120F8C7F057E0012E2
:100D28000FEFE559FD7C007F02120F8C7F057E00D6
:100D3800120FEFE55DFD7C007F03120F8C7F057EAF
:100D480000120FEFE55CFD7C007F04120F8C7F051D
:100D58007E00120FEFE55EFD7C007F05120F8C7F91
:060D6800057E00020FEF02
:10084000E539B401020546E53964047042E523B494
:100850000208E5267004F52380021523E5266401CD
:100860006011E5266402600BE52664036005E52659
:10087000B4040C7BFF7A0D79F8E4FDFF120AFD7BCE
:10088000FF7A0E79097D01E4FF120AFDE4F526D313
:10089000E523648094805003E4F523D3E524648049
:1008A00094805003E4F524E53964037032E5236451
:1008B000016013E5236402600DE546B40108E52AF2
:1008C000B40103752301E52364016013E523640289
:1008D000600DE546B40208E52AB40103752302E57C
:1008E0003964027034E546B40108E523B4010375A8
:1008F0002601E546B40108E523B40203752602E5A6
:1009000046B40208E523B40103752603E546B402A4
:1009100008E523B40203752604D3E5466480948277
:100920004003E4F546D3E523648094824003E4F574
:1009300046E526D394044003E4F526E55DB520247E
:10094000E55AB5281FE55BB5271AE559B52215E527
:100950005CB50B10E55EB5250B7D0A7C007FA07EA3
:0509600086120FB02219
:10041400120C9C8F0AE50A14B40A00400302054337
:1004240090043275F003A4C58325F0C583730204D8
:100434005002045E020469020477020482020490FA
:1004440002049C0204AE0204BB020530055AE55ABC
:10045400C39418401CE4F55A8017E55A7003755A82
:1004640018155A8025055BE55BC3943C4003E4F50D
:100474005B8017E55B7003755B3C155B8029055D4C
:10048400E55DC394644003E4F55D801BE55D7003A2
:10049400755D64155D02052E055CE55CB40D08050B
:1004A4005D755C01755E0102052EE55CB4010375A2
:1004B4005C0D155C02053A055EE55D54037011E5BB
:1004C4005CB4020CE55ED3941D4005055C755E01C9
:1004D400E55CB40C0FE55ED3941F4008755C0175B0
:1004E4005E01055DE55EC394204005055C755E0113
:1004F400E55C64046011E55C6406600BE55C64091A
:100504006005E55CB40B0CE55ED3941E4005755E96
:1005140001055CE55D54036011E55CB4020CE55E25
:10052400D3941C4005055C755E01800AE55EB40148
:1005340003755E20155EE4F50A7F0AFE120FEFE5EF
:1005440036B40810E4F561055AE55AC39418403CE2
:10055400E4F55A22E536B41C0DE4F561E55A70035E
:10056400755A18155A22E536B44210E4F561055B54
:10057400E55BC3943C4015E4F55B22E536B4520CCC
:0D058400E4F561E55B7003755B3C155B22DF
:10059100120C9C8F0AE50A14B40A0040030206C03B
:1005A1009005AF75F003A4C58325F0C583730205DB
:1005B100CD0205DB0205E60205F40205FF02060D88
:1005C10002061902062B0206380206AD0528E528A7
:1005D100C39418401CE4F5288017E528700375289A
:1005E10018152880250527E527C3943C4003E4F529
:1005F100278017E527700375273C152780290520DB
:10060100E520C394644003E4F520801BE5207003DA
:1006110075206415200206AB050BE50BB40D08052A
:1006210020750B017525010206ABE50BB4010375BD
:100631000B0D150B0206B70525E52054037011E5D6
:100641000BB4020CE525D3941D4005050B7525015E
:10065100E50BB40C0FE525D3941F4008750B01750C
:1006610025010520E525C394204005050B752501CD
:10067100E50B64046011E50B6406600BE50B64098E
:100681006005E50BB40B0CE525D3941E40057525DB
:1006910001050BE52054036011E50BB4020CE525BF
:1006A100D3941C4005050B752501800AE525B4018D
:1006B100037525201525E4F50A7F0AFE120FEFE5E3
:1006C10036B40810E4F5610528E528C39418403CC8
:1006D100E4F52822E536B41C0DE4F561E528700344
:1006E100752818152822E536B44210E4F56105276E
:1006F100E527C3943C4015E4F52722E536B4520CB6
:0D070100E4F561E527700375273C152722FC
:100D6E00120F1312103D12105112106112000612C2
:100D7E0010AF121086856136120840120D08E4FF7E
:100D8E00120E178F39E52614601A14600F146019AD
:100D9E0014601B240470DE12024F80D912001E1242
:100DAE00041480D112001E80CC120A3C80C7120A95
:060DBE003C12059180BF0C
:03000B00020EAA38
:090EAA00C0E0C0D075D000C00703
:100EB300758CDC758A000509E50970020508C39481
:100EC300F4E50894014012750800750900E52A70DD
:090ED300047F0180027F008F2AD8
:070EDC00D007D0D0D0E032B6
:09108600D288D2A8D2AFD2B22266
:0300030002070EE3
:10070E00C0E0C0F0C083C082C0D075D000C000C0B1
:0D071E0001C002C003C004C005C006C00732
:10072B00754800754900754A00754B00754C0030D3
:10073B00B203020825754903754AE820B21EE54A43
:10074B00454960187F017E00121071E54A154A7009
:10075B00021549E54A454970E202082520B2030219
:10076B00080D754901754AF430B21EE54A454960DA
:10077B00187F017E00121071E54A154A7002154967
:10078B00E54A454970E2020825754B00754C00752A
:10079B004902754A5820B21DE54A454960177F0149
:1007AB007E00121071E54A154A70021549E54A455B
:1007BB004970E28065754900754A1430B2127F0AA0
:1007CB007E001210710548E548D3941440ED804A21
:1007DB00745F254BF8C000E6C313D000F6E548C3A1
:1007EB0094084009745F254BF8E64480F675480081
:1007FB00054CE54CC394084096054BE54BC394045C
:10080B00408AE562F465616011754B00745F254B9E
:0A081B00F87600054BE54BB404F23B
:10082500D007D006D005D004D003D002D001D00027
:0B083500D0D0D082D083D0F0D0E032D1
:100F8C008F4D8C4E8D4F12108F7FA0120F3E120082
:100F9C000EAF4D120F3E12000EAF4F120F3E12004D
:040FAC000E0210A879
:020EE3008F4D31
:100EE50012108F7FA0120F3E12000EAF4D120F3E53
:100EF50012000E12108F7FA1120F3E12000E120F5C
:0D0F0500D18F4E7F0112107C1210A8AF4E4C
:010F120022BC
:09108F00D2A0D2A1C2A0C2A1228C
:0710A800C2A0D2A1D2A022D8
:020F3E00AD07FD
:100F4000E4FB74807E00A803088006CEA2E713CEDF
:100F500013D8F8FFEDF582EF558224FF92A0D2A1BD
:060F6000C2A10BBB08DC7E
:010F66002268
:100FD100E4FFD2A0FED2A130A00D7480A806088043
:0D0FE10002C313D8FC4207C2A10EBE08E8EF
:010FEE0022E0
:0A107C00EF24FF92A0D2A1C2A1222E
:0B000E00D2A0D2A1A2A0E433FFC2A147
:0100190022C4
:03000600D28C2277
:08109800C28CE4F58CF58A22FC
:10105100438910758CDCE4F58AD2A9D2AFC28C2207
:100E9100015800015916015B06015A09015D16014D
:050EA1005C02015E1C73
:10106100438910758DDCE4F58BD2ABD2AFC28E22F1
:0310AF00D28E22BC
:0810A000C28EE4F58DF58B22F0
:03001B0002096572
:10096500C0E0C0D075D000C007758DDC758B000563
:1009750058E55864646003020A35F5580559E55988
:10098500643C6003020A35F559055BE55B643C6030
:1009950003020A35F55B055AE55A64186003020A35
:1009A50035F55A055EE55D5403FF700EE55CB4024E
:1009B50009E55ED3941D4002805BEF600EE55CB4F3
:1009C5000209E55ED3941C4002804AE55C6401603F
:1009D5001DE55C64036017E55C64056011E55C6416
:1009E50007600BE55C64086005E55CB40A09E55E33
:1009F500D3941F4002801EE55C64046011E55C64CD
:100A050006600BE55C64096005E55CB40B0EE55E0C
:100A1500D3941E4007755E01055C8014E55CB40C3B
:100A25000FE55ED3941F4008755C01755E01055D99
:070A3500D007D0D0D0E03261
:030EA600016301E4
:100E1700EF6003756301E5636401702E30B109303B
:100E2700B00630B20320B3227FE87E03121071E4CC
:100E3700F56320B1037F012220B0037F022220B295
:100E4700037F032220B3127F042230B10C30B00994
:0B0E570030B20630B3037563017F006A
:010E6200226D
:10100D00C2A6C2A5C2A78F807F017E00120FEFD2AC
:0B101D00A77F017E00120FEFC2A72288
:0A0F6700AB54AA55A956120C1CFF4A
:100F7100D2A6C2A5C2A78F807F017E00120FEFD239
:0B0F8100A77F017E00120FEFC2A72225
:10103D007F3812100D7F0C12100D7F0612100D7FD0
:04104D000102100D7F
:080AFD008F538B548A55895672
:100B0500E4F557EDD394014003020B8FE553940FA1
:100B15005078EDC394015039AB54AA55A956120C1F
:100B25001C6067C374109553FFE557C39FE5575085
:100B350006248025538004255324B0FF12100D127E
:100B45000F6774012556F556E43555F5550557805B
:100B5500C7AB54AA55A956120C1C602EC374109528
:100B650053FFE557C39FE557500624C0255380041E
:100B750025532470FF12100D120F6774012556F5C9
:0A0B850056E43555F555055780C7B5
:010B8F002243
:100C9C00E4F54D75900FE590640F605DE590640F81
:100CAC00605775900FAF90EF24F5601024FE601123
:100CBC0014601324077019754D018014754D028052
:100CCC0008754D038003754D047F0A7E00121028B1
:100CDC007590F0AF90EF2450601124E0601124F077
:100CEC00601124707013854D4D800E740480067451
:0B0CFC00088002740C254DF54DAF4D33
:010D070022C9
:10102800EF1FAC0670011E4C600A7D027CEFDCFEEF
:04103800DDFC80EC6F
:01103C002291
:100FB0008E4D8F4E8C4F8D50E54E154EAE4D7002BE
:100FC000154D4E600BB2A5AF50AE4F12107180E8B8
:010FD00022FE
:0B107100EF1FAC0670011E4C70F62251
:100FEF00D3EF9400EE940040147D6E7C00ED1D70E5
:0D0FFF00011CED4C70F7EF1F70E61E80E343
:01100C0022C1
:03000000020B9060
:0C0B9000787FE4F6D8FD758163020BD776
:100C1C00BB010689828A83E0225002E722BBFE02D6
:090C2C00E32289828A83E4932209
:100C3500EF8DF0A4A8F0CF8CF0A428CE8DF0A42ED3
:020C4500FE228D
:100C4700BC000BBE0029EF8DF084FFADF022E4CC91
:100C5700F875F008EF2FFFEE33FEEC33FCEE9DEC5A
:100C6700984005FCEE9DFE0FD5F0E9E4CEFD22EDA0
:100C7700F8F5F0EE8420D21CFEADF075F008EF2FEA
:100C8700FFED33FD4007985006D5F0F222C398FDDB
:050C97000FD5F0EA2278
:100B9C00020D6EE493A3F8E493A34003F68001F2F4
:100BAC0008DFF48029E493A3F85407240CC8C3335A
:100BBC00C4540F4420C8834004F456800146F6DF29
:100BCC00E4800B0102040810204080900E63E47E48
:100BDC00019360BCA3FF543F30E509541FFEE4931E
:100BEC00A360010ECF54C025E060A840B8E493A3E5
:100BFC00FAE493A3F8E493A3C8C582C8CAC583CA10
:100C0C00F0A3C8C582C8CAC583CADFE9DEE780BEC7
:010EA9000048
:00000001FF
